:100000000C942A000C943C000C943C000C943C0092
:100010000C943C000C943C000C943C000C943C0070
:100020000C943C000C943C000C943C000C943C0060
:100030000C943C000C943C000C943C000C943C0050
:100040000C943C000C943C000C943C000C943C0040
:100050000C943C0011241FBECFE5D8E0DEBFCDBF1D
:1000600020E0A0E6B0E001C01D92A136B207E1F7A2
:100070000E947B010C9490030C940000452BC9F165
:1000800081309105A9F01CF4892B39F00895823054
:100090009105C9F0039711F108952AB381E090E02A
:1000A00002C0880F991F6A95E2F7822B8ABB0895D8
:1000B00027B381E090E002C0880F991F6A95E2F7AC
:1000C000822B87BB089524B381E090E002C0880FA3
:1000D000991F6A95E2F7822B84BB089521B381E0D2
:1000E00090E002C0880F991F6A95E2F7822B81BBCE
:1000F000089581309105B1F01CF4892B39F00895F1
:1001000082309105D9F0039729F108952AB381E04F
:1001100090E002C0880F991F6A95E2F780958223CC
:100120008ABB089527B381E090E002C0880F991F31
:100130006A95E2F78095822387BB089524B381E016
:1001400090E002C0880F991F6A95E2F7809582239C
:1001500084BB089521B381E090E002C0880F991F0D
:100160006A95E2F78095822381BB0895452BC9F1FA
:1001700081309105A9F01CF4892B39F00895823063
:100180009105C9F0039711F108952BB381E090E038
:1001900002C0880F991F6A95E2F7822B8BBB0895E6
:1001A00028B381E090E002C0880F991F6A95E2F7BA
:1001B000822B88BB089525B381E090E002C0880FB0
:1001C000991F6A95E2F7822B85BB089522B381E0DF
:1001D00090E002C0880F991F6A95E2F7822B82BBDC
:1001E000089581309105B1F01CF4892B39F0089500
:1001F00082309105D9F0039729F108952BB381E05E
:1002000090E002C0880F991F6A95E2F780958223DB
:100210008BBB089528B381E090E002C0880F991F3E
:100220006A95E2F78095822388BB089525B381E023
:1002300090E002C0880F991F6A95E2F780958223AB
:1002400085BB089522B381E090E002C0880F991F1A
:100250006A95E2F78095822382BB08958D9A08956E
:10026000AC0165E070E083E090E00E94B600089584
:1002700013BE93B7892B83BF83B7682B63BF0895E1
:100280008CBF089593B79F7D93BF93B7892B83BF8E
:1002900008959B016AB1440F551F440F551F440F29
:1002A000551F462B22953295307F3227207F3227EB
:1002B000242B2AB9BC01990F880B990B0E940403C7
:1002C0009B01AC0160E074E284E799E40E945A0269
:1002D00020E030E040E85FE30E94ED010E94CC02A4
:1002E00069B96F3F710511F00CF070BD08955F9B07
:1002F000FECF8CB108950E942E0141E050E061E0F4
:1003000070E080E895E20E9449010E948801FDCFDB
:100310000E94770180936000823381F118F4813369
:1003200041F00895833309F44EC0843309F450C07A
:10033000089541E050E063E070E081E090E00E94C9
:100340003E0065E070E088E490E00E94380180E2C1
:1003500090E00E94420186E20E9440012FEF8DE36F
:1003600099E4215080409040E1F700C0000065E032
:1003700070E080E090E00E943801089541E050E094
:1003800063E070E081E090E00E943E0065E070E094
:1003900088E490E00E94380180E290E00E944201EF
:1003A00086E10E9440012FEF8DE399E421508040C7
:1003B0009040E1F700C0000065E070E080E090E070
:1003C0000E943801089581E090E00E943001089574
:1003D00080E090E00E94300108955058BB27AA2782
:1003E0000E9405020C9456030E94480338F00E94B4
:1003F0004F0320F039F49F3F19F426F40C94450381
:100400000EF4E095E7FB0C943F03E92F0E9467038D
:1004100058F3BA17620773078407950720F079F439
:10042000A6F50C9489030EF4E0950B2EBA2FA02D9F
:100430000B01B90190010C01CA01A0011124FF2791
:10044000591B99F0593F50F4503E68F11A16F0408C
:10045000A22F232F342F4427585FF3CF469537958B
:100460002795A795F0405395C9F77EF41F16BA0B50
:10047000620B730B840BBAF09150A1F0FF0FBB1FFE
:10048000661F771F881FC2F70EC0BA0F621F731F47
:10049000841F48F4879577956795B795F7959E3FA4
:1004A00008F0B0CF9395880F08F09927EE0F979535
:1004B000879508950E946E020C9456030E944F0384
:1004C00058F00E94480340F029F45F3F29F00C9453
:1004D0003F0351110C948A030C9445030E94670357
:1004E00068F39923B1F3552391F3951B550BBB2763
:1004F000AA2762177307840738F09F5F5F4F220FA8
:10050000331F441FAA1FA9F335D00E2E3AF0E0E89E
:1005100032D091505040E695001CCAF72BD0FE2FE8
:1005200029D0660F771F881FBB1F2617370748077C
:10053000AB07B0E809F0BB0B802DBF01FF27935834
:100540005F4F3AF09E3F510578F00C943F030C94B6
:100550008A035F3FE4F3983ED4F3869577956795D9
:10056000B795F7959F5FC9F7880F911D9695879569
:1005700097F90895E1E0660F771F881FBB1F621788
:1005800073078407BA0720F0621B730B840BBA0B46
:10059000EE1F88F7E09508950E94D3026894B11188
:1005A0000C948A0308950E946F0388F09F5798F077
:1005B000B92F9927B751B0F0E1F0660F771F881F68
:1005C000991F1AF0BA95C9F714C0B13091F00E9482
:1005D0008903B1E008950C948903672F782F882749
:1005E000B85F39F0B93FCCF3869577956795B395A9
:1005F000D9F73EF490958095709561957F4F8F4F18
:100600009F4F0895E89409C097FB3EF4909580951C
:10061000709561957F4F8F4F9F4F9923A9F0F92FC8
:1006200096E9BB279395F695879577956795B79546
:10063000F111F8CFFAF4BB0F11F460FF1BC06F5F2C
:100640007F4F8F4F9F4F16C0882311F096E911C03E
:10065000772321F09EE8872F762F05C0662371F05F
:1006600096E8862F70E060E02AF09A95660F771F73
:10067000881FDAF7880F9695879597F9089597F967
:100680009F6780E870E060E008959FEF80EC089538
:1006900000240A9416161706180609060895002461
:1006A0000A9412161306140605060895092E0394DB
:1006B000000C11F4882352F0BB0F40F4BF2B11F44F
:1006C00060FF04C06F5F7F4F8F4F9F4F089557FDAE
:1006D0009058440F551F59F05F3F71F04795880FB0
:1006E00097FB991F61F09F3F79F087950895121647
:1006F00013061406551FF2CF4695F1DF08C01616F3
:1007000017061806991FF1CF8695710561050894A3
:100710000895E894BB2766277727CB0197F90895BA
:04072000F894FFCF7B
:00000001FF
