:100000000C942A000C9447000C9447000C94470071
:100010000C9447000C9447000C9447000C94470044
:100020000C9447000C9447000C9447000C94340641
:100030000C9447000C9447000C9447000C94470024
:100040000C9447000C9447000C9447000C94470014
:100050000C94470011241FBECFE5D8E0DEBFCDBF12
:1000600010E0A0E6B0E0EEE2F1E102C005900D92F2
:10007000A43EB107D9F720E0A4EEB0E001C01D9284
:10008000A23FB207E1F70E9472060C9495080C9407
:10009000000017B887B987B1002476956795079453
:1000A000769567950794762F602D682B67B987B191
:1000B000440F551F42955295507F5427407F542737
:1000C000482B47B916B886B1282B26B9379A089518
:1000D000369A0895349BFECF84B125B190E0922BDF
:1000E0000895AF92BF92CF92DF92EF92FF920F935B
:1000F0001F93CF93DF9300D000D0CDB7DEB77C0144
:10010000A62EB72E8E010F5F1F4F6E0185E0C80E21
:10011000D11CC7010E94D200F80181938F01FFEF2B
:10012000EF1AFF0A0C151D05A1F789818823C9F074
:10013000EA2DFB2DDE01129671E060E000E010E098
:1001400001C0842F9191572F462F981302C0502F32
:10015000412F252F342F4D91442329F0981789F3EF
:1001600002C020E030E081E090E0232B11F080E03D
:1001700090E00F900F900F900F90DF91CF911F9113
:100180000F91FF90EF90DF90CF90BF90AF900895C8
:10019000E199FECF8EBB8FB3982B9FBB6DBBE29ACC
:1001A000E19A0895E199FECF8EBB8FB3982B9FBB48
:1001B000E09A8DB30895CF92DF92EF92FF920F9362
:1001C0001F93CF93DF9300D000D01F92CDB7DEB73F
:1001D0007C01CB014AE0BE016F5F7F4F0E94600847
:1001E0008E010F5F1F4F6E0185E0C80ED11CF80114
:1001F00061918F01C7010E94C800FFEFEF1AFF0A4B
:100200000C151D05A1F70F900F900F900F900F90F8
:10021000DF91CF911F910F91FF90EF90DF90CF90E2
:100220000895452BC9F181309105A9F01CF4892B63
:1002300039F0089582309105C9F0039711F10895BE
:100240002AB381E090E002C0880F991F6A95E2F717
:10025000822B8ABB089527B381E090E002C0880F0B
:10026000991F6A95E2F7822B87BB089524B381E03A
:1002700090E002C0880F991F6A95E2F7822B84BB39
:10028000089521B381E090E002C0880F991F6A951C
:10029000E2F7822B81BB089581309105B1F01CF407
:1002A000892B39F0089582309105D9F0039729F10F
:1002B00008952AB381E090E002C0880F991F6A95E3
:1002C000E2F7809582238ABB089527B381E090E00E
:1002D00002C0880F991F6A95E2F78095822387BB39
:1002E000089524B381E090E002C0880F991F6A95B9
:1002F000E2F78095822384BB089521B381E090E0EA
:1003000002C0880F991F6A95E2F78095822381BB0E
:100310000895452BC9F181309105A9F01CF4892B72
:1003200039F0089582309105C9F0039711F10895CD
:100330002BB381E090E002C0880F991F6A95E2F725
:10034000822B8BBB089528B381E090E002C0880F18
:10035000991F6A95E2F7822B88BB089525B381E047
:1003600090E002C0880F991F6A95E2F7822B85BB47
:10037000089522B381E090E002C0880F991F6A952A
:10038000E2F7822B82BB089581309105B1F01CF415
:10039000892B39F0089582309105D9F0039729F11E
:1003A00008952BB381E090E002C0880F991F6A95F1
:1003B000E2F7809582238BBB089528B381E090E01B
:1003C00002C0880F991F6A95E2F78095822388BB47
:1003D000089525B381E090E002C0880F991F6A95C7
:1003E000E2F78095822385BB089522B381E090E0F7
:1003F00002C0880F991F6A95E2F78095822382BB1D
:10040000089581309105A1F01CF4892B39F02EC09C
:1004100082309105B9F00397F9F028C089B390E0D4
:1004200002C0959587956A95E2F78170992708959E
:1004300086B390E002C0959587956A95E2F7817042
:100440009927089583B390E002C0959587956A95A2
:10045000E2F781709927089580B390E002C09595E6
:1004600087956A95E2F781709927089580E090E07A
:10047000089541E050E062E070E081E090E00E9489
:1004800089018FE19EE40197F1F700C0000040E090
:1004900050E062E070E081E090E00E948901089500
:1004A000CF93C82F40E050E060E070E081E090E042
:1004B0000E9489018BB38F709C2F907F892B8BBBFF
:1004C0000E9439028FE99FE00197F1F700C0000018
:1004D0008BB3282F2F7030E1C39FC0011124822BD2
:1004E0008BBB0E9439028FE99FE00197F1F700C0B2
:1004F0000000CF91089581E00E9450028FE99FE0B3
:100500000197F1F700C0000008958AB3806F8ABB9D
:1005100041E050E060E070E081E090E00E94110175
:1005200041E050E061E070E081E090E00E94110164
:1005300041E050E062E070E081E090E00E94110153
:1005400040E050E061E070E081E090E00E948901CD
:100550000E947B0282E00E94500288E20E945002C8
:100560008CE00E94500286E00E9450020E947B02B2
:100570008FE99FE00197F1F700C000000895CF9345
:10058000C82F41E050E060E070E081E090E00E9420
:1005900089018BB38F709C2F907F892B8BBB0E941E
:1005A00039028FE99FE00197F1F700C000008BB39B
:1005B000282F2F7030E1C39FC0011124822B8BBBE9
:1005C0000E9439028FE99FE00197F1F700C0000017
:1005D000CF910895CF93DF93EC018881882331F088
:1005E00021960E94BF0289918111FBCFDF91CF91AB
:1005F0000895CF93DF93CDB7DEB72B970FB6F8945E
:10060000DEBF0FBECDBF4AE0BE016F5F7F4F0E94CD
:100610006008CE0101960E94EA022B960FB6F8946C
:10062000DEBF0FBECDBFDF91CF910895009719F0C7
:10063000019731F00895862F80680E945002089536
:10064000862F806C0E945002089513BE93B7892BA9
:1006500083BF83B7682B63BF089599B721E030E06B
:1006600002C0220F331F8A95E2F7292B29BF089574
:1006700099B721E030E002C0220F331F8A95E2F7DC
:100680002095292329BF08959B016AB1440F551F66
:10069000440F551F440F551F462B22953295307F2E
:1006A0003227207F3227242B2AB9BC01990F880BCF
:1006B000990B0E94AC079B01AC0160E074E284E7F7
:1006C00099E40E94020720E030E040E85FE30E94E6
:1006D00095060E94740769B96F3F710511F00CF01F
:1006E00070BD08955D9BFECF8CB90895EF92FF9287
:1006F0000F931F93CF93DF930F2EF7EEEF2EF0E0C3
:10070000FF2EF02D0E947B0282ED90E00E94EA0213
:10071000F70180818A32B1F0C8EED0E00E94CC04AB
:100720008E0189938FE39CE90197F1F700C00000E7
:100730000E947B0288EE90E00E94EA02F80180812C
:100740008A3261F768EE70E080E090E00E9471000C
:100750000197B9F40E947B028AEC90E00E94EA02C1
:10076000FFEF2DE389E4F15020408040E1F700C025
:100770000000E8EEF0E010821182128213821482EF
:1007800029C08091E4009091E50001969093E500E6
:100790008093E400039739F40E947B028CEB90E095
:1007A0000E94EA02FFCF0E947B0282EB90E00E944F
:1007B000EA029FEFE9E6F8E19150E040F040E1F70E
:1007C00000C00000E8EEF0E0108211821282138275
:1007D000148298CFDF91CF911F910F91FF90EF90EE
:1007E00008950E947B0284EA90E00E94EA022FEFC3
:1007F0008DE399E4215080409040E1F700C0000073
:100800000E947B028CE990E00E94EA0268E070E0BE
:1008100080E090E00E94160384E990E00E94EA02E2
:1008200060E070E081E090E00E94160389E890E0CB
:100830000E94EA020E94CC0408950E947B0281E893
:1008400090E00E94EA0268E070E080E090E00E94A0
:10085000160388E790E00E94EA0260E070E081E021
:1008600090E00E94160388E690E00E94EA020E944F
:10087000CC04813329F40E94720381E090E0089552
:10088000823329F40E94720381E090E0089521E010
:1008900090E0803309F420E0822F089527E030E0D3
:1008A00040E050E061E070E080E090E00E944900AC
:1008B0000E9468000E946A009C01220F331F220FD1
:1008C000331F820F931F6AE070E00E943808CB014B
:1008D0000895CF93DF9365E070E080E090E00E94A0
:1008E000250380E090E00E942D030E944E04EC015D
:1008F0000E947B0280E690E00E94EA0268E070E0DD
:1009000080E090E00E941603CE010E94F90260E0B0
:1009100070E081E090E00E94160388E690E00E947B
:10092000EA026C9724F083E30E94720303C084E31D
:100930000E9472030E94CC048033B9F660E070E03C
:1009400080E090E00E94250380E090E00E94380360
:1009500080E090E0DF91CF910895813329F40E94E7
:100960001D0480E090E00895823329F40E94690418
:1009700080E090E0089521E090E0833309F020E0EA
:10098000822F089584B3876084BB84B3877884BB47
:1009900085B3876085BB08950F931F93CF93DF9333
:1009A00001E010E063E070E082E090E00E9401026C
:1009B000892B09F440C1C0E0D0E085B3887F85BBB6
:1009C0002FEF39EF80E0215030408040E1F700C048
:1009D000000025B3C8010C2E02C0880F991F0A948D
:1009E000E2F7822B85BB8FEF99EF20E0815090409A
:1009F0002040E1F700C0000063E070E082E090E09A
:100A00000E940102892B79F085B3876085BB3FEF97
:100A100083EC99E0315080409040E1F700C0000045
:100A200083E38C1B1CC185B3876085BB3FEF89EFD7
:100A300090E0315080409040E1F700C000002196E6
:100A4000C330D10509F0B9CFF6C0C0E0D0E085B31E
:100A5000887F85BB2FEF39EF80E021503040804008
:100A6000E1F700C0000025B3C8010C2E02C0880FBA
:100A7000991F0A94E2F7822B85BB8FEF99EF20E054
:100A8000815090402040E1F700C0000064E070E039
:100A900082E090E00E940102892B79F085B38760A3
:100AA00085BB3FEF83EC99E0315080409040E1F707
:100AB00000C0000086E38C1BD2C085B3876085BB75
:100AC0003FEF89EF90E0315080409040E1F700C067
:100AD00000002196C330D10509F0B9CFB6C065E05A
:100AE00070E082E090E00E940102892B09F449C085
:100AF000C0E0D0E085B3887F85BB2FEF39EF80E081
:100B0000215030408040E1F700C0000025B3C8010B
:100B10000C2E02C0880F991F0A94E2F7822B85BB26
:100B20008FEF99EF20E0815090402040E1F700C026
:100B3000000065E070E082E090E00E940102892BF5
:100B400079F085B3876085BB3FEF83EC99E0315046
:100B500080409040E1F700C0000089E38C1B7FC01B
:100B600085B3876085BB3FEF89EF90E031508040CF
:100B70009040E1F700C000002196C330D10509F094
:100B8000B9CF66E070E082E090E00E940102892B1C
:100B900009F408CFC0E0D0E085B3887F85BB2FEF94
:100BA00039EF80E0215030408040E1F700C0000084
:100BB00025B3C8010C2E02C0880F991F0A94E2F7D2
:100BC000822B85BB8FEF99EF20E081509040204031
:100BD000E1F700C0000066E070E082E090E00E9473
:100BE0000102892B91F085B3876085BB3FEF83ECD1
:100BF00099E0315080409040E1F700C0000020971C
:100C0000B1F02197B1F08AE22AC085B3876085BB35
:100C10002FEF39EF80E0215030408040E1F700C0F5
:100C200000002196C330D10509F0B6CFBBCE83E2D8
:100C300016C080E314C064E070E082E090E00E949F
:100C40000102892B09F001CF4ACF65E070E082E014
:100C500090E00E940102892B09F04ACF92CFDF91E8
:100C6000CF911F910F9108951F920F920FB60F927F
:100C700011242F933F934F935F936F937F938F93A1
:100C80009F93AF93BF93EF93FF938091E600909172
:100C9000E70001968E33910529F09093E700809349
:100CA000E6000FC01092E7001092E6000E944E048A
:100CB0004C9724F083E30E94720303C084E30E94F4
:100CC0007203FF91EF91BF91AF919F918F917F91AF
:100CD0006F915F914F913F912F910F900FBE0F90A9
:100CE0001F90189567E574E080E090E00E94DB00BB
:100CF0000E94C20441E050E061E070E080E895E2CB
:100D00000E9444030E9485028FE39CE90197F1F75A
:100D100000C0000081E090E0019711F40E9476038A
:100D20000E94F1030E94AD04F7CF5058BB27AA27B9
:100D30000E94AD060C94FE070E94F00738F00E9456
:100D4000F70720F039F49F3F19F426F40C94ED07CF
:100D50000EF4E095E7FB0C94E707E92F0E940F08DB
:100D600058F3BA17620773078407950720F079F4E0
:100D7000A6F50C9431080EF4E0950B2EBA2FA02D99
:100D80000B01B90190010C01CA01A0011124FF2738
:100D9000591B99F0593F50F4503E68F11A16F04033
:100DA000A22F232F342F4427585FF3CF4695379532
:100DB0002795A795F0405395C9F77EF41F16BA0BF7
:100DC000620B730B840BBAF09150A1F0FF0FBB1FA5
:100DD000661F771F881FC2F70EC0BA0F621F731FEE
:100DE000841F48F4879577956795B795F7959E3F4B
:100DF00008F0B0CF9395880F08F09927EE0F9795DC
:100E0000879508950E9416070C94FE070E94F70725
:100E100058F00E94F00740F029F45F3F29F00C944D
:100E2000E70751110C9432080C94ED070E940F084B
:100E300068F39923B1F3552391F3951B550BBB2709
:100E4000AA2762177307840738F09F5F5F4F220F4E
:100E5000331F441FAA1FA9F335D00E2E3AF0E0E845
:100E600032D091505040E695001CCAF72BD0FE2F8F
:100E700029D0660F771F881FBB1F26173707480723
:100E8000AB07B0E809F0BB0B802DBF01FF279358DB
:100E90005F4F3AF09E3F510578F00C94E7070C94B1
:100EA00032085F3FE4F3983ED4F3869577956795D3
:100EB000B795F7959F5FC9F7880F911D9695879510
:100EC00097F90895E1E0660F771F881FBB1F62172F
:100ED00073078407BA0720F0621B730B840BBA0BED
:100EE000EE1F88F7E09508950E947B076894B11182
:100EF0000C94320808950E94170888F09F5798F0C4
:100F0000B92F9927B751B0F0E1F0660F771F881F0E
:100F1000991F1AF0BA95C9F714C0B13091F00E9428
:100F20003108B1E008950C943108672F782F882795
:100F3000B85F39F0B93FCCF3869577956795B3954F
:100F4000D9F73EF490958095709561957F4F8F4FBE
:100F50009F4F0895E89409C097FB3EF490958095C3
:100F6000709561957F4F8F4F9F4F9923A9F0F92F6F
:100F700096E9BB279395F695879577956795B795ED
:100F8000F111F8CFFAF4BB0F11F460FF1BC06F5FD3
:100F90007F4F8F4F9F4F16C0882311F096E911C0E5
:100FA000772321F09EE8872F762F05C0662371F006
:100FB00096E8862F70E060E02AF09A95660F771F1A
:100FC000881FDAF7880F9695879597F9089597F90E
:100FD0009F6780E870E060E008959FEF80EC0895DF
:100FE00000240A9416161706180609060895002408
:100FF0000A9412161306140605060895092E039482
:10100000000C11F4882352F0BB0F40F4BF2B11F4F5
:1010100060FF04C06F5F7F4F8F4F9F4F089557FD54
:101020009058440F551F59F05F3F71F04795880F56
:1010300097FB991F61F09F3F79F0879508951216ED
:1010400013061406551FF2CF4695F1DF08C0161699
:1010500017061806991FF1CF86957105610508944A
:101060000895E894BB2766277727CB0197F9089561
:1010700097FB072E16F4009407D077FD09D00E9445
:101080004C0807FC05D03EF4909581959F4F08953C
:10109000709561957F4F0895AA1BBB1B51E107C056
:1010A000AA1FBB1FA617B70710F0A61BB70B881FF8
:1010B000991F5A95A9F780959095BC01CD01089587
:1010C000BB274A3031F4992322F4BDE290958195F3
:1010D0009F4F0C946C08BB27FB015527AA27880F4C
:1010E000991FAA1FA41710F0A41B83955051B9F79C
:1010F000A05DAA3308F0A95DA193009779F7B1111B
:10110000B1931192CB010C948508DC01FC01672F8F
:1011100071917723E1F7329704C07C916D937083CE
:0E1120006291AE17BF07C8F30895F894FFCF91
:10112E0054656D70203D200030203E3E3E52657469
:10113E0075726E486F6D6500323E3E434C4F53459F
:10114E0000313E3E4F50454E00333E3E4C4F472001
:10115E004F555400323E3E54454D5000313E3E44B4
:10116E004F4F520057656C6C636F6D65202E2E2E9F
:10117E002E00696E636F72726563740041636365FE
:10118E0073732044656E69656400416363657365BE
:10119E006400454E5445522075722070617373770A
:0411AE006F726400F8
:00000001FF
